{
  "transactions": [
    {
      "hash": "0x05c21576d2862d2503ab828f2c939c97665408abb8c42ee8075e356a43a26f57",
      "transactionType": "CALL",
      "contractName": "EarthMindNFT",
      "contractAddress": "0x928eE2dd8Bf2A2f9f9d5687F2Fcf0c35898254fb",
      "function": "requestAddItemToCollection(string,string)",
      "arguments": [
        "\"ipfs://QmdiZADNgiJwi6i6qQ3QwWMA6iq77dbHwDof8ukNPaAZDL\"",
        "\"sample prompt\""
      ],
      "transaction": {
        "type": "0x02",
        "from": "0x23bf95de9f90338f973056351c8cd2cb78cbe52f",
        "to": "0x928ee2dd8bf2a2f9f9d5687f2fcf0c35898254fb",
        "gas": "0x389c9",
        "value": "0x2386f26fc10000",
        "data": "0x6303d57f000000000000000000000000000000000000000000000000000000000000004000000000000000000000000000000000000000000000000000000000000000a00000000000000000000000000000000000000000000000000000000000000035697066733a2f2f516d64695a41444e67694a77693669367151335177574d41366971373764624877446f6638756b4e5061415a444c0000000000000000000000000000000000000000000000000000000000000000000000000000000000000d73616d706c652070726f6d707400000000000000000000000000000000000000",
        "nonce": "0x2",
        "accessList": []
      },
      "additionalContracts": [],
      "isFixedGasLimit": false
    },
    {
      "hash": "0x2455e2dce7dfe4a87ea8c67e2fce384c656e49cf1f2e752e9d3483eedbfa86c6",
      "transactionType": "CALL",
      "contractName": "EarthMindNFT",
      "contractAddress": "0x928eE2dd8Bf2A2f9f9d5687F2Fcf0c35898254fb",
      "function": "approveItemAddition(bytes32)",
      "arguments": [
        "0xb44f3704dde021ae42f528c6666909a11b99e2b8c0dca5cc585c16eba392bb4e"
      ],
      "transaction": {
        "type": "0x02",
        "from": "0x23bf95de9f90338f973056351c8cd2cb78cbe52f",
        "to": "0x928ee2dd8bf2a2f9f9d5687f2fcf0c35898254fb",
        "gas": "0x3f587",
        "value": "0x0",
        "data": "0xb4e32497b44f3704dde021ae42f528c6666909a11b99e2b8c0dca5cc585c16eba392bb4e",
        "nonce": "0x3",
        "accessList": []
      },
      "additionalContracts": [],
      "isFixedGasLimit": false
    }
  ],
  "receipts": [
    {
      "transactionHash": "0x05c21576d2862d2503ab828f2c939c97665408abb8c42ee8075e356a43a26f57",
      "transactionIndex": "0x21",
      "blockHash": "0x6eb800e8647466a3dcd143bb2c950f0c18c7b730efc8ac8b33e74cce84b0e202",
      "blockNumber": "0x536355",
      "from": "0x23BF95De9F90338F973056351C8Cd2CB78cbe52f",
      "to": "0x928eE2dd8Bf2A2f9f9d5687F2Fcf0c35898254fb",
      "cumulativeGasUsed": "0x19fd24",
      "gasUsed": "0x28fc6",
      "contractAddress": null,
      "logs": [
        {
          "address": "0x928eE2dd8Bf2A2f9f9d5687F2Fcf0c35898254fb",
          "topics": [
            "0x5c53c715540866e6504b079d3d96eb3d7682960dc221a8be20b163daa8524a4b",
            "0xb44f3704dde021ae42f528c6666909a11b99e2b8c0dca5cc585c16eba392bb4e",
            "0x00000000000000000000000023bf95de9f90338f973056351c8cd2cb78cbe52f"
          ],
          "data": "0x0000000000000000000000000000000000000000000000000000000000000040000000000000000000000000000000000000000000000000002386f26fc10000000000000000000000000000000000000000000000000000000000000000000d73616d706c652070726f6d707400000000000000000000000000000000000000",
          "blockHash": "0x6eb800e8647466a3dcd143bb2c950f0c18c7b730efc8ac8b33e74cce84b0e202",
          "blockNumber": "0x536355",
          "transactionHash": "0x05c21576d2862d2503ab828f2c939c97665408abb8c42ee8075e356a43a26f57",
          "transactionIndex": "0x21",
          "logIndex": "0x14",
          "removed": false
        }
      ],
      "status": "0x1",
      "logsBloom": "0x20000000000000000000000000000000000000001000000000000080000000080000000000000000000000000000000000000000000000000000000000000000000000000002000000001000000000000000000000000000000000000000000000000000000000000000000000000000000000000080000000000001000000000000000000000000000000000000001000000000000000000000000000000000000000008000000000000000000100000000000000000000000000000000000000000000000000000000000000000000008000000000000000000000000000000000000000000000000000000000000000000000000000000000000000000000",
      "type": "0x2",
      "effectiveGasPrice": "0x434763911"
    },
    {
      "transactionHash": "0x2455e2dce7dfe4a87ea8c67e2fce384c656e49cf1f2e752e9d3483eedbfa86c6",
      "transactionIndex": "0x22",
      "blockHash": "0x6eb800e8647466a3dcd143bb2c950f0c18c7b730efc8ac8b33e74cce84b0e202",
      "blockNumber": "0x536355",
      "from": "0x23BF95De9F90338F973056351C8Cd2CB78cbe52f",
      "to": "0x928eE2dd8Bf2A2f9f9d5687F2Fcf0c35898254fb",
      "cumulativeGasUsed": "0x1cb227",
      "gasUsed": "0x2b503",
      "contractAddress": null,
      "logs": [
        {
          "address": "0x928eE2dd8Bf2A2f9f9d5687F2Fcf0c35898254fb",
          "topics": [
            "0xc3d58168c5ae7397731d063d5bbf3d657854427343f4c083240f7aacaa2d0f62",
            "0x00000000000000000000000023bf95de9f90338f973056351c8cd2cb78cbe52f",
            "0x0000000000000000000000000000000000000000000000000000000000000000",
            "0x00000000000000000000000023bf95de9f90338f973056351c8cd2cb78cbe52f"
          ],
          "data": "0x00000000000000000000000000000000000000000000000000000000000000010000000000000000000000000000000000000000000000000000000000000001",
          "blockHash": "0x6eb800e8647466a3dcd143bb2c950f0c18c7b730efc8ac8b33e74cce84b0e202",
          "blockNumber": "0x536355",
          "transactionHash": "0x2455e2dce7dfe4a87ea8c67e2fce384c656e49cf1f2e752e9d3483eedbfa86c6",
          "transactionIndex": "0x22",
          "logIndex": "0x15",
          "removed": false
        },
        {
          "address": "0x928eE2dd8Bf2A2f9f9d5687F2Fcf0c35898254fb",
          "topics": [
            "0x6fb42fda7924e03e71725d1fdc5add8739165f9921d66d3156e390c752dd7863",
            "0x0000000000000000000000000000000000000000000000000000000000000001"
          ],
          "data": "0x000000000000000000000000000000000000000000000000002386f26fc10000",
          "blockHash": "0x6eb800e8647466a3dcd143bb2c950f0c18c7b730efc8ac8b33e74cce84b0e202",
          "blockNumber": "0x536355",
          "transactionHash": "0x2455e2dce7dfe4a87ea8c67e2fce384c656e49cf1f2e752e9d3483eedbfa86c6",
          "transactionIndex": "0x22",
          "logIndex": "0x16",
          "removed": false
        }
      ],
      "status": "0x1",
      "logsBloom": "0x00000000000000000000000000000000000000000000000000000000000000000000000000000000000000000000000000000000000004000000000000042000000000000002000000001000000000000000000000040000000000000000000000000000020000000000000000000800000000000000000000000000000000000000000000000040000000000000001000000000000000000000000000000000000000008000000000000000000100000000000000000000000000000000000000000000000000000000000000000000008020000008000000000000000060000000000000000000000000000000000000000000000000000000080000000000",
      "type": "0x2",
      "effectiveGasPrice": "0x434763911"
    }
  ],
  "libraries": [],
  "pending": [],
  "returns": {},
  "timestamp": 1710177612,
  "chain": 11155111,
  "multi": false,
  "commit": "3ba047a"
}